:020000040801F1
:10000000FCFF0120410C0108A10B0108A90B01080C
:10001000B10B0108B90B0108C10B01080000000079
:10002000000000000000000000000000C90B0108F3
:10003000D70B010800000000E50B0108F30B0108D5
:10004000910C0108910C0108910C0108910C010818
:10005000910C0108910C0108910C0108910C010808
:10006000910C0108910C0108910C0108910C0108F8
:10007000910C0108910C0108910C0108910C0108E8
:10008000910C0108910C0108910C0108910C0108D8
:10009000910C0108910C0108910C0108910C0108C8
:1000A000910C0108910C0108910C0108910C0108B8
:1000B000910C0108910C0108910C0108910C0108A8
:1000C000910C0108910C0108910C0108910C010898
:1000D000910C0108910C0108910C0108910C010888
:1000E000910C0108910C0108910C0108910C010878
:1000F000910C0108910C0108910C0108910C010868
:10010000910C0108910C0108910C0108910C010857
:10011000910C0108910C0108910C0108910C010847
:10012000910C0108910C0108910C0108910C010837
:10013000910C0108910C0108910C0108910C010827
:10014000910C0108910C0108910C0108010C0108A7
:10015000910C0108910C0108910C0108910C010807
:10016000910C0108910C0108910C0108910C0108F7
:10017000910C0108910C0108910C0108000000008D
:08018000910C0108910C01082B
:1001880010B5054C237833B9044B13B10448AFF3C9
:1001980000800123237010BDFC0000200000000037
:1001A800E880010808B5034B1BB103490348AFF3C6
:1001B800008008BD0000000000010020E880010860
:1001C80053B94AB9002908BF00281CBF4FF0FF31B6
:1001D8004FF0FF3000F088B9ADF1080C6DE904CE9E
:1001E80000F006F8DDF804E0DDE9022304B070470A
:1001F8002DE9F047089D8E4604468846002B4AD1D3
:100208008A42174662D9B2FA82F64EB1C6F1200385
:1002180001FA06F820FA03F3B74043EA0808B440A5
:100228004FEA174E1FFA87FCB8FBFEF1230C0EFBB2
:10023800118843EA084301FB0CF29A4209D9FB18DA
:1002480001F1FF3080F0EA809A4240F2E7800239FB
:100258003B449A1AA3B2B2FBFEF00EFB102243EA0B
:10026800024300FB0CFC9C4509D9FB1800F1FF3246
:1002780080F0D6809C4540F2D3803B44023840EA67
:100288000140A3EB0C0300211DB1F3400022C5E996
:100298000032BDE8F0878B4205D90DB1C5E90001F0
:1002A80000210846F5E7B3FA83F1002946D17345E2
:1002B80002D3824200F20581841A6EEB0302012008
:1002C8009046002DE5D0C5E90048E2E7002A00F095
:1002D8009080B2FA82F6002E40F0A4808A1A030CAD
:1002E8004FEA174E80B2BCB20121B2FBFEFC0EFBF6
:1002F8001C2243EA024304FB0CF29A4207D9FB187A
:100308000CF1FF3802D29A4200F2E080C4469B1AF0
:10031800B3FBFEF20EFB123340EA034302FB04F484
:100328009C4207D9FB1802F1FF3002D29C4200F22E
:10033800CA8002461B1B42EA0C40A5E7C1F1200611
:100348008B4022FA06F71F430EFA01F420FA06F34F
:100358002EFA06FE4FEA1749234300FA01F81FFA5E
:1003680087FCBEFBF9F01C0C09FB10EE44EA0E44B6
:1003780000FB0CFEA64502FA01F209D93C1900F16E
:10038800FF3A80F09C80A64540F2998002383C44B0
:10039800A4EB0E041FFA83FEB4FBF9F309FB134424
:1003A8004EEA044403FB0CFCA44508D93C1903F1AC
:1003B800FF3E80F08280A4457FD9023B3C4443EA5B
:1003C8000040A4EB0C04A0FB02EC64457346E14634
:1003D80062D35FD05DB1B8EB030264EB090404FAA1
:1003E80006F622FA01F31E43CC40C5E90064002159
:1003F8004FE7B1FBF2FC010C41EA0E4180B240EA42
:1004080001423B4638463C46B846BE462026B1FB2C
:10041800F7F1A2EB080241EA0C4166E7014618E74A
:1004280010462CE7C6F120022EFA02F3B740B1407D
:1004380020FA02F24FEA174E0A43B3FBFEF8BCB2A9
:100448000EFB1833110C41EA034108FB04F9B040D4
:1004580089454FEA104380B23ED9791808F1FF3C2C
:1004680001D289451FD8A1EB0901B1FBFEF909FBAF
:1004780004F80EFB191192B242EA0142424529D210
:10048800BA1809F1FF31C4D24245C2D2A9F102011A
:100498003A44BEE7F0459DD2BEEB02036CEB070C75
:1004A8000138E14696E7A7EB09094944A8F1020C8F
:1004B800B1FBFEF909FB04F8DBE773467FE750461A
:1004C80066E70846FDE63B44023A33E7ACF1020C26
:1004D8003B441CE749469CE7A1EB0901C446B1FB34
:1004E800FEF909FB04F8C4E7704700BF80B500AF08
:1004F80000F0CCFB00F016F800F012F900F07CF8E0
:1005080000F0A8F800F0D6F807F0BCF84FF4005156
:10051800034800F018FF642000F02AFC00BFF5E74C
:10052800000C024080B594B000AF07F120033022E0
:100538000021184607F0A8FD07F10C0300221A60F5
:100548005A609A60DA601A610023BB60284B1B6C02
:10055800274A43F080531364254B1B6C03F08053E8
:10056800BB60BB6800237B60224B1B68214A43F4B5
:10057800804313601F4B1B6803F480437B607B68D8
:1005880001233B624FF480337B620223BB634FF449
:100598008003FB6308233B644FF4A8737B64022346
:1005A800BB640723FB6407F12003184602F01CFF15
:1005B8000346002B01D000F0B1F90F23FB600223A2
:1005C8003B6100237B614FF4A053BB614FF4805320
:1005D800FB6107F10C030521184603F07DF903467A
:1005E800002B01D000F09AF900BF5037BD4680BDFE
:1005F800003802400070004080B500AF124B134A2B
:100608001A60114B124A5A600F4B00229A600E4B27
:100618000022DA600C4B4FF480421A610A4B002228
:100628005A61094B00229A61074B0022DA61064B96
:1006380000221A62044800F0A1FE0346002B01D0F4
:1006480000F06CF900BF80BD180100200054004084
:10065800A086010080B500AF134B144A1A60124BF4
:100668004FF400725A60104B00229A600E4B002221
:10067800DA600D4B4FF400721A610B4B0C4A5A6149
:10068800094B00229A61084B0022DA61064B0022CE
:100698001A62054800F0B6FF0346002B01D000F0AF
:1006A8003DF900BF80BD00BF6C010020003C004048
:1006B8000077010080B500AF174B184A1A60164B37
:1006C8004FF482725A60144B00229A60124B002237
:1006D800DA60114B00221A610F4B00225A610E4B4F
:1006E8004FF400729A610C4B0022DA610A4B002227
:1006F8001A62094B00225A62074B00229A62064B83
:100708000A22DA62044803F035FC0346002B01D0C4
:1007180000F004F900BF80BDB401002000300140A2
:1007280080B58CB000AF07F11C0300221A605A6034
:100738009A60DA601A610023BB61724B1B6B714AC5
:1007480043F0100313636F4B1B6B03F01003BB6183
:10075800BB6900237B616B4B1B6B6A4A43F0040344
:100768001363684B1B6B03F004037B617B690023F5
:100778003B61644B1B6B634A43F080031363614B1B
:100788001B6B03F080033B613B690023FB605D4BFF
:100798001B6B5C4A43F0010313635A4B1B6B03F05A
:1007A8000103FB60FB680023BB60564B1B6B554A7B
:1007B80043F002031363534B1B6B03F00203BB604C
:1007C800BB6800237B604F4B1B6B4E4A43F008030A
:1007D80013634C4B1B6B03F008037B607B680022A0
:1007E8000821494800F096FD01220121474800F000
:1007F80091FD00224FF21001454800F08BFD0823BF
:10080800FB6101233B6200237B620023BB6207F18B
:100818001C0319463C4800F0E1FB0123FB6101235E
:100828003B6200237B620023BB6207F11C0319466D
:10083800364800F0D3FB0823FB6102233B62002308
:100848007B620023BB620523FB6207F11C03194688
:100858002E4800F0C3FB0123FB614FF490133B6269
:1008680000237B6207F11C0319462A4800F0B6FBF7
:100878000423FB6100233B6200237B6207F11C0316
:100888001946254800F0AAFB4FF48063FB61022358
:100898003B6200237B620023BB620523FB6207F1F6
:1008A8001C0319461C4800F099FB4FF21003FB612A
:1008B80001233B6200237B620023BB6207F11C0318
:1008C8001946134800F08AFB2023FB6100233B6292
:1008D80000237B6207F11C0319460D4800F07EFBDC
:1008E8000223FB614FF490133B6200237B6207F104
:1008F8001C031946044800F071FB00BF3037BD46A1
:1009080080BD00BF003802400010024000080240CD
:10091800000C0240000002400004024080B400AF16
:1009280072B600BF00BFFDE780B582B000AF0023FC
:100938007B60104B5B6C0F4A43F4804353640D4B50
:100948005B6C03F480437B607B6800233B60094B4E
:100958001B6C084A43F080531364064B1B6C03F06E
:1009680080533B603B68072000F0F6FA00BF083769
:10097800BD4680BD0038024080B58AB000AF7860BF
:1009880007F1140300221A605A609A60DA601A614B
:100998007B681B68194A93422CD100233B61184B92
:1009A8001B6B174A43F002031363154B1B6B03F0D1
:1009B80002033B613B694FF410737B611223BB61F7
:1009C8000123FB6100233B6204237B6207F11403CC
:1009D80019460C4800F002FB0023FB60084B1B6C17
:1009E800074A43F400131364054B1B6C03F400130C
:1009F800FB60FB6800BF2837BD4680BD005400403F
:100A0800003802400004024080B58EB000AF786024
:100A180007F1240300221A605A609A60DA601A61AA
:100A280007F1140300221A605A609A60DA607B6842
:100A38001B68314A93425AD101237B61C023BB61B1
:100A48000223FB6107F11403184603F051F903462A
:100A5800002B01D0FFF762FF00233B61274B1B6C83
:100A6800264A43F400431364244B1B6C03F40043ED
:100A78003B613B690023FB60204B1B6B1F4A43F023
:100A8800010313631D4B1B6B03F00103FB60FB6841
:100A98000023BB60194B1B6B184A43F00403136314
:100AA800164B1B6B03F00403BB60BB6810237B620F
:100AB8000223BB620023FB6200233B6306237B63A4
:100AC80007F1240319460E4800F088FA4FF4A4539E
:100AD8007B620223BB620023FB6200233B63062385
:100AE8007B6307F124031946064800F077FA00BF34
:100AF8003837BD4680BD00BF003C0040003802408A
:100B0800000002400008024080B58AB000AF78605B
:100B180007F1140300221A605A609A60DA601A61B9
:100B28007B681B68194A93422BD100233B61184B01
:100B38005B6C174A43F480535364154B5B6C03F4A6
:100B480080533B613B690023FB60114B1B6B104AD0
:100B580043F0010313630E4B1B6B03F00103FB60AF
:100B6800FB68E0237B610223BB610023FB61002358
:100B78003B6205237B6207F114031946054800F020
:100B88002DFA00BF2837BD4680BD00BF00300140A8
:100B9800003802400000024080B400AF00BFFDE70B
:100BA80080B400AF00BFFDE780B400AF00BFFDE731
:100BB80080B400AF00BFFDE780B400AF00BFFDE721
:100BC80080B400AF00BFBD465DF8047B704780B4B9
:100BD80000AF00BFBD465DF8047B704780B400AF2E
:100BE80000BFBD465DF8047B704780B500AF00F0DC
:100BF8009FF800BF80BD000080B500AF024801F03B
:100C0800E5FA00BF80BD00BFF016002080B400AF39
:100C1800074BD3F88830064A43F47003C2F888308B
:100C2800034B044A9A6000BFBD465DF8047B7047D9
:100C380000ED00E000000108DFF834D0FFF7E6FF20
:100C48000C480D490D4A002302E0D458C45004331F
:100C5800C4188C42F9D30A4A0A4C002301E01360F5
:100C68000432A242FBD307F017FAFFF73FFC7047A4
:100C7800FCFF012000000020FC000020708101081A
:100C8800FC000020F41D0020FEE7000080B500AF46
:100C98000E4B1B680D4A43F4007313600B4B1B6823
:100CA8000A4A43F480631360084B1B68074A43F4FD
:100CB80080731360032000F04FF9002000F008F85B
:100CC800FFF732FE0023184680BD00BF003C0240FB
:100CD80080B582B000AF7860124B1A68124B1B784F
:100CE80019464FF47A73B3FBF1F3B2FBF3F31846EA
:100CF80000F067F90346002B01D001230EE07B6862
:100D08000F2B0AD8002279684FF0FF3000F02FF936
:100D1800064A7B681360002300E001231846083761
:100D2800BD4680BD0000002008000020040000200F
:100D380080B400AF064B1B781A46064B1B68134459
:100D4800044A136000BFBD465DF8047B704700BFCE
:100D5800080000200C02002080B400AF034B1B6881
:100D68001846BD465DF8047B704700BF0C020020A2
:100D780080B584B000AF7860FFF7EEFFB8607B689D
:100D8800FB60FB68B3F1FF3F05D00A4B1B781A469E
:100D9800FB681344FB6000BFFFF7DEFF0246BB6839
:100DA800D31AFA689A42F7D800BF00BF1037BD4679
:100DB80080BD00BF0800002080B485B000AF786017
:100DC8007B6803F00703FB600C4BDB68BB60BA6809
:100DD8004FF6FF031340BB60FB681A02BB6813435E
:100DE80043F0BF6343F40033BB60044ABB68D3607D
:100DF80000BF1437BD465DF8047B704700ED00E086
:100E080080B400AF044BDB681B0A03F007031846E5
:100E1800BD465DF8047B704700ED00E080B483B008
:100E280000AF0346FB7197F90730002B0BDBFB790A
:100E380003F01F02074997F907305B09012000FA00
:100E480002F241F8232000BF0C37BD465DF8047B51
:100E5800704700BF00E100E080B483B000AF0346F4
:100E68003960FB7197F90730002B0ADB3B68DAB26F
:100E78000C4997F907301201D2B20B4483F80023CA
:100E88000AE03B68DAB20849FB7903F00F03043B38
:100E98001201D2B20B441A7600BF0C37BD465DF87A
:100EA800047B704700E100E000ED00E080B489B009
:100EB80000AFF860B9607A60FB6803F00703FB6174
:100EC800FB69C3F10703042B28BF0423BB61FB693B
:100ED8000433062B02D9FB69033B00E000237B6146
:100EE8004FF0FF32BB6902FA03F3DA43BB681A40DA
:100EF8007B699A404FF0FF317B6901FA03F3D943CC
:100F08007B680B40134318462437BD465DF8047BC5
:100F18007047000080B582B000AF78607B68013B05
:100F2800B3F1807F01D301230FE00A4A7B68013BBC
:100F380053600F214FF0FF30FFF78EFF054B002263
:100F48009A60044B07221A60002318460837BD46EA
:100F580080BD00BF10E000E080B582B000AF7860CF
:100F68007868FFF729FF00BF0837BD4680BD80B508
:100F780086B000AF0346B9607A60FB7300237B61DB
:100F8800FFF73EFF78617A68B9687869FFF78EFFE6
:100F9800024697F90F3011461846FFF75DFF00BF6C
:100FA8001837BD4680BD80B582B000AF0346FB71DF
:100FB80097F907301846FFF731FF00BF0837BD46DD
:100FC80080BD80B582B000AF78607868FFF7A2FF77
:100FD800034618460837BD4680BD000080B489B076
:100FE80000AF7860396000237B6100233B610023F8
:100FF800BB610023FB616BE10122FB6902FA03F389
:101008007B613B681B687A6913403B613A697B697D
:101018009A4240F05A813B685B6803F00303012B56
:1010280005D03B685B6803F00303022B30D17B6873
:101038009B68BB61FB695B00032202FA03F3DB4395
:10104800BA691340BB613B68DA68FB695B0002FA66
:1010580003F3BA691343BB617B68BA699A607B681A
:101068005B68BB610122FB6902FA03F3DB43BA69DF
:101078001340BB613B685B681B0903F00102FB6915
:1010880002FA03F3BA691343BB617B68BA695A6011
:101098003B685B6803F00303032B17D07B68DB68AE
:1010A800BB61FB695B00032202FA03F3DB43BA6905
:1010B8001340BB613B689A68FB695B0002FA03F363
:1010C800BA691343BB617B68BA69DA603B685B68DD
:1010D80003F00303022B23D1FB69DA087B6808328B
:1010E80053F82230BB61FB6903F007039B000F2212
:1010F80002FA03F3DB43BA691340BB613B681A6920
:10110800FB6903F007039B0002FA03F3BA69134370
:10111800BB61FB69DA087B680832B96943F82210B9
:101128007B681B68BB61FB695B00032202FA03F35F
:10113800DB43BA691340BB613B685B6803F0030299
:10114800FB695B0002FA03F3BA691343BB617B686E
:10115800BA691A603B685B6803F44033002B00F0FF
:10116800B4800023FB60604B5B6C5F4A43F48043B0
:1011780053645D4B5B6C03F48043FB60FB685B4A24
:10118800FB699B08023352F82330BB61FB6903F00B
:1011980003039B000F2202FA03F3DB43BA691340EF
:1011A800BB617B68524A93422BD07B68514A934279
:1011B80025D07B68504A93421FD07B684F4A9342A0
:1011C80019D07B684E4A934213D07B684D4A9342AC
:1011D8000DD07B684C4A934207D07B684B4A9342B8
:1011E80001D107230EE008230CE006230AE00523BB
:1011F80008E0042306E0032304E0022302E00123BD
:1012080000E00023FA6902F0030292009340BA69F1
:101218001343BB613549FB699B080233BA6941F83E
:1012280023203B4B9B68BB613B69DB43BA69134096
:10123800BB613B685B6803F48013002B03D0BA6979
:101248003B691343BB61324ABB699360304BDB682F
:10125800BB613B69DB43BA691340BB613B685B68B0
:1012680003F40013002B03D0BA693B691343BB6135
:10127800274ABB69D360264B5B68BB613B69DB438C
:10128800BA691340BB613B685B6803F40033002B09
:1012980003D0BA693B691343BB611D4ABB695360FC
:1012A8001B4B1B68BB613B69DB43BA691340BB61DD
:1012B8003B685B6803F48033002B03D0BA693B6951
:1012C8001343BB61124ABB691360FB690133FB61BD
:1012D800FB690F2B7FF690AE00BF00BF2437BD46D9
:1012E8005DF8047B704700BF0038024000380140B9
:1012F800000002400004024000080240000C0240C6
:10130800001002400014024000180240001C024075
:10131800003C014080B483B000AF78600B467B800E
:1013280013467B707B78002B03D07A887B689A61A0
:1013380003E07B881A047B689A6100BF0C37BD46BE
:101348005DF8047B704780B485B000AF78600B46C9
:101358007B807B685B69FB607A88FB6813401A04B2
:10136800FB68D9437B880B401A437B689A6100BFAE
:101378001437BD465DF8047B7047000080B584B023
:1013880000AF78607B68002B01D101232BE17B68DB
:1013980093F83D30DBB2002B06D17B68002283F83E
:1013A8003C207868FFF7E8FA7B68242283F83D2020
:1013B8007B681B681A687B681B6822F001021A6048
:1013C8007B681B681A687B681B6842F400421A60D5
:1013D8007B681B681A687B681B6822F400421A60E5
:1013E80002F072FCF8607B685B68814A934207D818
:1013F800FB68804A934294BF01230023DBB206E0D6
:10140800FB687D4A934294BF01230023DBB2002B83
:1014180001D00123E7E0FB68784AA2FB03239B0C79
:10142800BB607B681B685B6823F03F017B681B68B7
:10143800BA680A435A607B681B681B6A23F03F013D
:101448007B685B686A4A934202D8BB68013309E04B
:10145800BB684FF4967202FB03F3694AA2FB0323AD
:101468009B0901337A6812680B4313627B681B6817
:10147800DB6923F44F4222F0FF027B685B685C491A
:101488008B4219D8FB68591E7B685B685B00B1FB0F
:10149800F3F3591C40F6FC730B40002B0AD0FB6891
:1014A800591E7B685B685B00B1FBF3F30133C3F340
:1014B8000B0351E004234FE07B689B68002B11D19C
:1014C800FB68581E7B6859680B465B000B44B0FBF1
:1014D800F3F30133C3F30B03002B0CBF01230023E9
:1014E800DBB212E0FB68581E7B6859680B469B000C
:1014F8000B4499000B44B0FBF3F30133C3F30B0324
:10150800002B0CBF01230023DBB2002B01D00123E9
:1015180022E07B689B68002B0ED1FB68581E7B6815
:1015280059680B465B000B44B0FBF3F30133C3F37C
:101538000B0343F400430FE0FB68581E7B685968AF
:101548000B469B000B4499000B44B0FBF3F30133AB
:10155800C3F30B0343F44043796809681343CB6131
:101568007B681B681B6823F0C0017B68DA697B68AD
:101578001B6A1A437B681B680A431A607B681B68EE
:101588009B6823F4034323F0FF037A6811697A68A0
:10159800D26811437A6812680B4393607B681B68B2
:1015A800DB6823F0FF017B685A697B689B691A43F3
:1015B8007B681B680A43DA607B681B681A687B686B
:1015C8001B6842F001021A607B6800221A647B687B
:1015D800202283F83D207B6800221A637B68002262
:1015E80083F83E20002318461037BD4680BD00BF53
:1015F800A08601007F841E00FF083D0083DE1B4398
:10160800D34D621080B588B000AF78607B68002B3E
:1016180001D1012328E17B6893F84130DBB2002B2C
:1016280009D17B68002283F840207B68904A5A637E
:101638007868FFF7E9F97B68022283F841207B6824
:101648001B68DB697A68126823F47B6323F00F0355
:10165800D3617B681B6802221A627B685B69022B74
:1016680060D07B68DB68002B02D110237B6101E02E
:1016780020237B617B689B68202B02D87B695B00F9
:101688007B61012002F016FCF8607B681B69B3F5EA
:10169800007F25D17B68DB68002B10D07B699B001D
:1016A800FA68B2FBF3F213469B0013445B001A4638
:1016B8007B685B69B2FBF3F305333B611FE07B6931
:1016C800DB00FA68B2FBF3F213469B0013445B009D
:1016D8001A467B685B69B2FBF3F305333B610EE0A6
:1016E800FA687B69B2FBF3F213469B0013445B0074
:1016F8001A467B685B69B2FBF3F305333B613B69D0
:101708005C4AA2FB0323DB083B613B6903F001034E
:10171800BB613A69BB69D31A5B08FB61BB691B02F1
:10172800BB6103E00223FB610023BB61FB69012B62
:1017380002D9FB69FF2B07D97B685B6C43F0100269
:101748007B685A6401238FE07B681A69BB6942EAA7
:1017580003017B681B68FA690A431A627B681B6885
:10176800DB6923F47B6323F00F037A6851687A6896
:10177800926811437A68D26811437A6892690A4379
:101788001A437B681B6842F40062DA617B681B6A53
:10179800012B61D17B68384A5A637B681B68374ADA
:1017A800934201D1364B01E04FF04023DB697A6860
:1017B800126832498A4201D1314A01E04FF0402291
:1017C80023F47B6323F00F03D3617B681B682B4AE8
:1017D800934201D12A4B01E04FF0402302221A62C2
:1017E8007B681B68254A934201D1254B01E04FF0E5
:1017F8004023DB697B817B685B68B3F5007F03D09E
:101808007B685B68002B03D14FF480733B6101E078
:1018180000233B613B699AB27B689B689BB2134388
:101828009AB27B68DB689BB213439AB27B689B6968
:101838009BB213439AB27B8913439BB243F4006370
:101848007B817B681B680D4A934201D10C4B01E0F8
:101858004FF040237A89DA617B6800225A647B68FA
:10186800012283F84120002318462037BD4680BD59
:1018780083190108CDCCCCCC991A01080038004056
:101888000034004080B483B000AF786000BF0C37EC
:10189800BD465DF8047B704780B483B000AF7860C4
:1018A80000BF0C37BD465DF8047B704780B483B039
:1018B80000AF786000BF0C37BD465DF8047B704709
:1018C80080B582B000AF78607B685B6A1A887B68F5
:1018D8001B68DA607B685B6A9A1C7B685A627B6863
:1018E8005B8D9BB2013B9AB27B685A857B685B8DA6
:1018F8009BB2002B0ED17B681B685A687B681B68FB
:1019080022F0A0025A607B68012283F8412078689F
:10191800FFF7B8FF00BF0837BD4680BD80B582B06D
:1019280000AF78607B681B68DA687B68DB6A92B214
:101938001A807B68DB6A9A1C7B68DA627B685B8E3C
:101948009BB2013B9AB27B685A867B685B8E9BB2DE
:10195800002B0ED17B681B685A687B681B6822F0D5
:1019680060025A607B68012283F841207868FFF79B
:1019780093FF00BF0837BD4680BD80B586B000AF75
:1019880078607B681B689B687B617B6893F8413053
:10199800DBB2042B3AD17B6903F00103012B09D197
:1019A8007B681B685B6803F04003402B02D17868B2
:1019B800FFF7B4FF7B6903F04003402B26D17B6817
:1019C8001B685B6803F02003202B1FD17B681B6812
:1019D8005A687B681B6822F060025A6000233B61EA
:1019E8007B681B68DB683B617B681B689B683B61A5
:1019F8003B697B68012283F841207B685B6C43F07C
:101A080002027B685A647868FFF750FF7B6893F896
:101A18004130DBB2032B36D17B6903F00203022B82
:101A280009D17B681B685B6803F08003802B02D1B7
:101A38007868FFF745FF7B6903F00803082B22D17C
:101A48007B681B685B6803F02003202B1BD17B6835
:101A58001B685A687B681B6822F0A0025A60002342
:101A6800FB607B681B689B68FB60FB687B680122E6
:101A780083F841207B685B6C43F004027B685A64FE
:101A88007868FFF713FF00BF1837BD4680BD000018
:101A980080B588B000AF78607B681B689B68FB6185
:101AA8007B681B68924A934201D1924B01E04FF048
:101AB80040239B68BB617B681B685B687B617B68B4
:101AC8001B688B4A934201D18A4B01E04FF04023B7
:101AD8005B683B617B685B68B3F5007F04D07B681B
:101AE8005B68002B40F09980FB6903F00203022B2E
:101AF80007D17B6903F08003002B02D0786800F0DF
:101B080025F9BB6903F00103012B07D13B6903F0F9
:101B18004003002B02D0786800F0C8F9BB6903F0D5
:101B28004003402B3AD13B6903F02003002B35D00A
:101B38007B681B686E4A934201D16E4B01E04FF0FF
:101B480040235A687B681B6869498B4201D1694BFD
:101B580001E04FF0402322F060025A607B681B6866
:101B68005A687B681B6822F0A0025A600023FB6059
:101B78007B681B68DB68FB607B681B689B68FB6095
:101B8800FB687B68012283F841207B685B6C43F02B
:101B980002027B685A647868FFF788FEFB6903F0E5
:101BA8000803082B40F0C3807B6903F02003002B57
:101BB80000F0BD807B681B685A687B681B6822F050
:101BC800A0025A607B681B68494A934201D1494B7D
:101BD80001E04FF040235A687B681B6844498B42F8
:101BE80001D1444B01E04FF0402322F060025A60DB
:101BF8000023BB607B681B689B68BB60BB687B6815
:101C0800012283F841207B685B6C43F004027B6807
:101C18005A647868FFF74AFE89E0BB6903F002035B
:101C2800022B07D13B6903F08003002B02D07868B0
:101C380000F0BEF8FB6903F00103012B07D17B69B3
:101C480003F04003002B02D0786800F0FDF8FB6930
:101C580003F04003402B2FD17B6903F02003002BB6
:101C68002AD07B681B685A687B681B6822F0600270
:101C78005A607B681B681E4A934201D11D4B01E0E4
:101C88004FF040235A687B681B6819498B4201D181
:101C9800184B01E04FF0402322F0A0025A607B6805
:101CA800012283F841207B685B6C43F002027B6869
:101CB8005A647868FFF7FAFDBB6903F00803082B3C
:101CC80036D13B6903F02003002B31D07B681B68B9
:101CD800074A934201D1074B01E04FF040235A686D
:101CE8007B681B6802498B4206D1024B06E000BFA5
:101CF80000380040003400404FF0402322F0A0029A
:101D08005A607B681B685A687B681B6822F060020F
:101D18005A607B68012283F841207B685B6C43F042
:101D280004027B685A647868FFF7C0FD00E000BFD2
:101D380000BF2037BD4680BD80B483B000AF786057
:101D480000BF0C37BD465DF8047B704780B582B094
:101D580000AF78607B685B6A991C7A6851621A8860
:101D68007B681B68DA607B685B8D9BB2013B9AB22B
:101D78007B685A857B685B8D9BB2002B13D17B688F
:101D88001B685A687B681B6822F0A0025A607B684F
:101D98005B8E9BB2002B06D17B68012283F8412021
:101DA8007868FFF7C9FF00BF0837BD4680BD00004F
:101DB80080B582B000AF78607B685B6A991C7A68EE
:101DC800516219887B681B681D4A934201D11D4BDB
:101DD80001E04FF040230A46DA607B685B8D9BB2D6
:101DE800013B9AB27B685A857B685B8D9BB2002B5E
:101DF80021D17B681B68124A934201D1114B01E043
:101E08004FF040235A687B681B680D498B4201D10B
:101E18000C4B01E04FF0402322F0A0025A607B688F
:101E28005B8E9BB2002B06D17B68012283F8412090
:101E38007868FFF781FF00BF0837BD4680BD00BF47
:101E4800003800400034004080B582B000AF7860B0
:101E58007B681B68D8687B68DB6A991C7A68D162E2
:101E680082B21A807B685B8E9BB2013B9AB27B6818
:101E78005A867B685B8E9BB2002B13D17B681B68EC
:101E88005A687B681B6822F060025A607B685B8D29
:101E98009BB2002B06D17B68012283F84120786829
:101EA800FFF74AFF00BF0837BD4680BD80B582B046
:101EB80000AF78607B681B68204A934201D1204BB1
:101EC80001E04FF04023D8687B68DB6A991C7A6888
:101ED800D16282B21A807B685B8E9BB2013B9AB258
:101EE8007B685A867B685B8E9BB2002B21D17B680E
:101EF8001B68124A934201D1114B01E04FF0402375
:101F08005A687B681B680D498B4201D10C4B01E074
:101F18004FF0402322F060025A607B685B8D9BB2D1
:101F2800002B06D17B68012283F841207868FFF7EF
:101F380003FF00BF0837BD4680BD00BF0038004022
:101F48000034004080B586B002AF78607B68002B13
:101F580001D1012301E17B681B68BB607B6893F8B2
:101F68009534DBB2002B06D17B68002283F89424D9
:101F7800786805F067FD7B68032283F89524BB68C1
:101F8800B3F1A04F02D17B6800229A717B681B686D
:101F9800184602F090F97B6818687B681A7C8DF8FF
:101FA800002004330ECB02F06EF80346002B05D058
:101FB8007B68022283F895240123CEE07B681B68A6
:101FC8000021184602F088F90346002B05D07B68EB
:101FD800022283F895240123BFE00023FB734AE023
:101FE800FA7B79681346DB0013449B000B441533D6
:101FF80001221A70FA7B79681346DB0013449B00B0
:102008000B441433FA7B1A70FA7BFB7B98B279681D
:102018001346DB0013449B000B442E3302461A8000
:10202800FA7B79681346DB0013449B000B44183392
:1020380000221A70FA7B79681346DB0013449B0070
:102048000B441C3300221A60FA7B79681346DB00C4
:1020580013449B000B44203300221A60FA7B7968F2
:102068001346DB0013449B000B44243300221A6000
:10207800FB7B0133FB737B681B79FA7B9A42AFD3F6
:102088000023FB7344E0FA7B79681346DB001344B2
:102098009B000B4403F2552300221A70FA7B7968DF
:1020A8001346DB0013449B000B4403F51573FA7BBE
:1020B8001A70FA7B79681346DB0013449B000B44C3
:1020C80003F5167300221A70FA7B79681346DB0051
:1020D80013449B000B4403F5177300221A60FA7B24
:1020E80079681346DB0013449B000B4403F518730F
:1020F80000221A60FA7B79681346DB0013449B00C0
:102108000B4403F5197300221A60FB7B0133FB7340
:102118007B681B79FA7B9A42B5D37B6818687B6821
:102128001A7C8DF8002004330ECB02F021F9034607
:10213800002B05D07B68022283F8952401230CE04C
:102148007B6800225A747B68012283F895247B6897
:102158001B68184603F06BF9002318461037BD4674
:1021680080BD80B584B000AF78607B681B68FB6079
:102178007B6893F89434012B01D1022322E07B6819
:10218800012283F89424FB68DB6803F04003002BEA
:1021980009D07B685B7B012B05D1FB689B6B43F403
:1021A8008032FB689A637B681B68184602F072F8F5
:1021B8007B681B68184603F019F97B68002283F8CE
:1021C8009424002318461037BD4680BD90B58DB0C5
:1021D80000AF78607B681B683B623B6AFB617B6889
:1021E8001B68184603F0D7F90346002B40F08C848F
:1021F8007B681B68184603F03BF90346002B00F088
:102208008284FB6903F500639B681B0AC3F30D0214
:102218007B68C3F8D4247B681B68184603F028F948
:10222800034603F00203022B07D17B681B685A6937
:102238007B681B6802F002025A617B681B681846BB
:1022480003F016F9034603F01003102B61D17B68E5
:102258001B689A697B681B6822F010029A613B6AC6
:102268001B6ABB61BB6903F00F021346DB00134412
:102278009B0003F514737A68134404337B61BB69CC
:1022880003F4F013B3F5802F24D1BA6947F6F0733D
:102298001340002B35D07B69D968BB691B099BB2F9
:1022A800C3F30A039BB21A46386A02F04DFF7B69F2
:1022B800DA68BB691B09C3F30A031A447B69DA604D
:1022C8007B695A69BB691B09C3F30A031A447B6912
:1022D8005A6116E0BB6903F4F013B3F5402F10D12F
:1022E8007B6803F29C4308221946386A02F02CFFE7
:1022F8007B695A69BB691B09C3F30A031A447B69E2
:102308005A617B681B689A697B681B6842F01002F7
:102318009A617B681B68184603F0AAF8034603F421
:102328000023B3F5002F40F0A78000237B627B6871
:102338001B68184603F0AFF8B86299E0BB6A03F06F
:102348000103002B00F08E807B681B687A6AD2B28A
:102358001146184603F0D3F838613B6903F00103CE
:10236800002B0CD07B6A5A01FB69134403F53063D8
:102378001A4601239360796A786800F0A3FE3B69E6
:1023880003F00803002B0CD07B6A5A01FB69134445
:1023980003F530631A4608239360796A786800F079
:1023A80079FF3B6903F01003002B08D07B6A5A01C0
:1023B800FB69134403F530631A46102393603B69A5
:1023C80003F00203002B30D03B6A5B6903F0800303
:1023D800802B09D1FB6903F500635B68FA6902F594
:1023E800006243F4806353607A6A1346DB00134447
:1023F8009B0003F514737A68134404337B617B698B
:10240800DB78012B08D17B690022DA707B6ADBB2AA
:102418001946786805F02AFC7B6A5A01FB6913445F
:1024280003F530631A46022393603B6903F02003E7
:10243800002B08D07B6A5A01FB69134403F530630B
:102448001A46202393603B6903F40053002B09D0FC
:102458007B6A5A01FB69134403F530631A464FF44B
:10246800005393607B6A01337B62BB6A5B08BB6283
:10247800BB6A002B7FF462AF7B681B68184602F0CA
:10248800F7FF034603F48023B3F5802F40F0DB8089
:102498007B681B68184603F018F8B86200237B6253
:1024A800CDE0BB6A03F00103002B00F0C2807B681B
:1024B8001B687A6AD2B21146184603F03EF83861B2
:1024C8003B6903F00103002B57D07B6A03F00F032D
:1024D800012202FA03F3FB60FB6903F500635A6B00
:1024E800FB68DB43F96901F5006113404B637B6AC4
:1024F8005A01FB69134403F510631A4601239360DC
:102508007B689B79012B32D179687A6A1346DB00A4
:1025180013449B000B442033196878687A6A134681
:10252800DB0013449B0003441C331B681944786880
:102538007A6A1346DB0013449B0003442033196076
:102548007B6A002B13D179687A6A1346DB0013443F
:102558009B000B4424331B68002B08D17B68186848
:102568007B6803F29C431A46012103F045F87B6A15
:10257800DBB21946786805F0F4FA3B6903F0080302
:10258800002B08D07B6A5A01FB69134403F51063DA
:102598001A46082393603B6903F01003002B08D008
:1025A8007B6A5A01FB69134403F510631A4610232A
:1025B80093603B6903F04003002B08D07B6A5A0103
:1025C800FB69134403F510631A46402393603B6983
:1025D80003F00203002B23D0796A386A02F02CF842
:1025E8007A6A1346DB0013449B0010337A6813445D
:1025F80004337B617B69DB78012B08D17B6900227E
:10260800DA707B6ADBB21946786805F041FB7B6AB1
:102618005A01FB69134403F510631A4602239360B9
:102628003B6903F08003002B03D0796A786800F0D7
:10263800BDFC7B6A01337B62BB6A5B08BB62BB6A19
:10264800002B7FF42EAF7B681B68184602F010FF42
:10265800034603F00043B3F1004F22D1FB6903F5B1
:1026680000635B68FA6902F5006223F001035360B6
:102678007B6893F8CC34012B08D17B68002283F85F
:10268800CC240021786800F0A3FE02E0786805F009
:10269800DFFA7B681B685A697B681B6802F0004296
:1026A8005A617B681B68184602F0E2FE034603F491
:1026B8000063B3F5006F12D1FB6903F500639B68F3
:1026C80003F00103012B02D1786805F09BFA7B68BF
:1026D8001B685A697B681B6802F400625A617B6850
:1026E8001B68184602F0C4FE034603F48053B3F592
:1026F800805F40F0B780FB6903F500635B68FA69A7
:1027080002F5006223F0010353607B681B68102107
:10271800184601F091FF0023FB6246E0FB6A5A016C
:10272800FB69134403F510631A464FF67F33936031
:10273800FB6A5A01FB69134403F510631B68FA6AC4
:102748005101FA690A4402F5106223F40013136078
:10275800FB6A5A01FB69134403F530631A464FF6C6
:102768007F339360FB6A5A01FB69134403F53063B6
:102778001B68FA6A5101FA690A4402F5306223F4C7
:1027880000131360FB6A5A01FB69134403F53063B5
:102798001B68FA6A5101FA690A4402F5306243F08B
:1027A80000631360FB6A0133FB627B681B791A467E
:1027B800FB6A9342B2D3FB6903F50063DB69FA69EC
:1027C80002F5006243F00113D3617B68DB7B002BC9
:1027D80016D0FB6903F50063D3F88430FA6902F573
:1027E800006243F00B03C2F88430FB6903F5006311
:1027F8005B6CFA6902F5006243F00B03536415E061
:10280800FB6903F500635B69FA6902F5006243F44A
:10281800005343F02B035361FB6903F500631B6905
:10282800FA6902F5006243F00B031361FB6903F5D3
:1028380000631B68FA6902F5006223F4FE63136003
:102848007B6818687B6899797B6803F29C431A4611
:1028580002F0D2FE7B681B685A697B681B6802F429
:1028680080525A617B681B68184602F001FE0346D5
:1028780003F40053B3F5005F23D17B681B68184647
:1028880002F097FE7B681B68184601F04EFF03466E
:102898001A467B68DA717B681C6801F009FA014600
:1028A8007B68DB791A46204601F052FC786805F00F
:1028B80080F97B681B685A697B681B6802F40052C0
:1028C8005A617B681B68184602F0D2FD034603F084
:1028D8000803082B0AD1786805F05DF97B681B6846
:1028E8005A697B681B6802F008025A617B681B689A
:1028F800184602F0BDFD034603F08003802B23D168
:102908003B6A9B6923F080023B6A9A6101237B62E0
:1029180014E079687A6A1346DB0013449B000B4481
:1029280003F257231B78012B05D17B6ADBB21946CA
:10293800786800F00AFB7B6A01337B627B681B794D
:102948001A467B6A9342E4D37B681B68184602F0F8
:102958008FFD034603F48013B3F5801F3CD1012398
:102968007B622BE07B6A5A01FB69134403F5106311
:102978001B68BB6179687A6A1346DB0013449B00C5
:102988000B4418331B78012B15D1BB69002B12DAC5
:1029980079687A6A1346DB0013449B000B441733AB
:1029A80001221A707B6ADBB263F07F03DBB219463F
:1029B800786800F0CAFA7B6A01337B627B681B790E
:1029C8001A467B6A9342CDD37B681B685A697B6839
:1029D8001B6802F480125A617B681B68184602F073
:1029E80047FD034603F40013B3F5001F56D1012336
:1029F8007B6245E07B6A5A01FB69134403F5306347
:102A08001B68BB6179687A6A1346DB0013449B0034
:102A18000B4403F516731B78012B2ED1BB69002BD1
:102A28002BDABB691A0C7B68D3F8D434534003F013
:102A38000103002B21D179687A6A1346DB0013441D
:102A48009B000B4403F2572301221A703B6A9B69CF
:102A580043F080023B6A9A613B6A5B6903F080033A
:102A6800002B0AD1FB6903F500635B68FA6902F57C
:102A7800006243F40073536008E07B6A01337B62B1
:102A88007B681B791A467B6A9342B3D37B681B68C1
:102A98005A697B681B6802F400125A617B681B68DC
:102AA800184602F0E5FC034603F08043B3F1804F7B
:102AB8000AD1786805F0FEF87B681B685A697B685C
:102AC8001B6802F080425A617B681B68184602F056
:102AD800CFFC034603F00403042B15D17B681B6865
:102AE8005B68BB61BB6903F00403002B02D0786804
:102AF80005F0EEF87B681B6859687B681B68BA6943
:102B08000A435A6000E000BF3437BD4690BD80B527
:102B180082B000AF78600B46FB707B6893F8943402
:102B2800012B01D1022312E07B68012283F894244F
:102B38007B68FA785A747B681B68FA7811461846DD
:102B480002F02EFC7B68002283F8942400231846A8
:102B58000837BD4680BD80B584B000AF78600846B0
:102B680011461A460346FB700B463B801346BB7062
:102B78000023FB7297F90330002B0FDAFB7803F080
:102B88000F021346DB0013449B0010337A6813448A
:102B98000433FB60FB6801225A700FE0FB7803F0F6
:102BA8000F021346DB0013449B0003F514737A6885
:102BB80013440433FB60FB6800225A70FB7803F06F
:102BC8000F03DAB2FB681A703B88C3F30A02FB688A
:102BD8009A60FB68BA781A71FB685B78002B04D09E
:102BE800FB681B781A46FB685A83BB78022B02D114
:102BF800FB6800225A717B6893F89434012B01D149
:102C080002230EE07B68012283F894247B681B680A
:102C1800F968184601F0AEFD7B68002283F8942419
:102C2800FB7A18461037BD4680BD80B584B000AF2A
:102C380078600B46FB7097F90330002B0FDAFB78AE
:102C480003F00F021346DB0013449B0010337A682D
:102C580013440433FB60FB6801225A700FE0FB78D1
:102C680003F00F021346DB0013449B0003F51473B3
:102C78007A6813440433FB60FB6800225A70FB78BF
:102C880003F00F03DAB2FB681A707B6893F8943488
:102C9800012B01D102230EE07B68012283F89424E2
:102CA8007B681B68F968184601F0ECFD7B68002218
:102CB80083F89424002318461037BD4680BD80B59C
:102CC80086B000AFF8607A603B600B46FB72FB7A17
:102CD80003F00F021346DB0013449B0003F5147343
:102CE800FA68134404337B617B697A68DA607B692C
:102CF8003A681A617B6900225A617B6900225A701E
:102D0800FB7A03F00F03DAB27B691A70FB689B79D0
:102D1800012B02D17A687B69DA61FB681868FB6865
:102D28009B791A46796901F089FE002318461837FD
:102D3800BD4680BD80B483B000AF78600B46FB70A1
:102D4800FB7803F00F0279681346DB0013449B00FD
:102D58000B4403F51A731B6818460C37BD465DF81B
:102D6800047B704780B586B000AFF8607A603B603E
:102D78000B46FB72FB7A03F00F021346DB00134489
:102D88009B001033FA68134404337B617B697A68CB
:102D9800DA607B693A681A617B6900225A617B694B
:102DA80001225A70FB7A03F00F03DAB27B691A70BA
:102DB800FB689B79012B02D17A687B69DA61FB6831
:102DC8001868FB689B791A46796901F037FE002379
:102DD80018461837BD4680BD80B584B000AF78600E
:102DE8000B46FB70FB7803F00F037A681279934265
:102DF80001D901234FE097F90330002B0FDAFB7854
:102E080003F00F021346DB0013449B0010337A686B
:102E180013440433FB60FB6801225A700DE0FA7812
:102E28001346DB0013449B0003F514737A681344BC
:102E38000433FB60FB6800225A70FB6801229A7019
:102E4800FB7803F00F03DAB2FB681A707B6893F81B
:102E58009434012B01D102231DE07B68012283F801
:102E680094247B681B68F968184602F0C5F9FB785A
:102E780003F00F03002B09D17B6818687B689979E8
:102E88007B6803F29C431A4602F0B6FB7B6800227B
:102E980083F89424002318461037BD4680BD80B5BA
:102EA80084B000AF78600B46FB70FB7803F00F032B
:102EB8007A681279934201D9012342E097F90330E5
:102EC800002B0FDAFB7803F00F021346DB001344E4
:102ED8009B0010337A6813440433FB60FB680122BB
:102EE8005A700FE0FB7803F00F021346DB0013441F
:102EF8009B0003F514737A6813440433FB60FB6882
:102F080000225A70FB6800229A70FB7803F00F03C6
:102F1800DAB2FB681A707B6893F89434012B01D1FC
:102F280002230EE07B68012283F894247B681B68E7
:102F3800F968184602F0CEF97B68002283F89424D9
:102F4800002318461037BD4680BD80B584B000AF59
:102F580078600B46FB7097F90330002B0CDAFB788E
:102F680003F00F021346DB0013449B0010337A680A
:102F780013440433FB600CE0FB7803F00F021346A4
:102F8800DB0013449B0003F514737A68134404337D
:102F9800FB607B681B68F968184601F0EDFF034683
:102FA800FB72FB7A18461037BD4680BD80B58AB0E3
:102FB80002AF786039607B681B687B617B693B6125
:102FC8003A681346DB0013449B0010337A681344B5
:102FD8000433FB60FB685A69FB681B699A4201D994
:102FE80001236BE0FB681A69FB685B69D31AFB6114
:102FF800FB689B68FA699A4202D9FB689B68FB6187
:10300800FB6903339B08BB612AE0FB681A69FB680C
:103018005B69D31AFB61FB689B68FA699A4202D91B
:10302800FB689B68FB61FB6903339B08BB61FB681A
:10303800D9683B68DAB2FB6998B27B689B790093E0
:103048000346786902F042F8FB68DA68FB691A44BB
:10305800FB68DA60FB685A69FB691A44FB685A61C5
:103068003B685A013B69134403F510639B699BB2A3
:10307800BA699A4209D8FB685A69FB681B699A427F
:1030880003D2FB681B69002BBFD1FB681A69FB6878
:103098005B699A4211D83B6803F00F03012202FAD8
:1030A80003F3BB603B6903F500635A6BBB68DB4302
:1030B800396901F5006113404B6300231846203736
:1030C800BD4680BD80B588B000AF786039607B6848
:1030D8001B68FB61FB69BB61FB693C3304331B68FC
:1030E8007B613B685A01BB69134403F530639B68F5
:1030F8003B617B689B79012B7BD13B6903F008031B
:10310800002B15D07B69614A934240F2B9803B6934
:1031180003F40043002B00F0B3803B685A01BB69FD
:10312800134403F530631A464FF400439360A7E055
:103138003B6903F02003002B09D03B685A01BB69A7
:10314800134403F530631A462023936098E03B69E3
:1031580003F02803002B40F093807B694B4A93428D
:103168000FD93B6903F40043002B0AD03B685A018E
:10317800BB69134403F530631A464FF40043936068
:103188007EE03A681346DB0013449B0003F5147392
:103198007A6813440433FB60FB681A6A3B68590178
:1031A800BB690B4403F530631B69C3F31203D21ADE
:1031B800FB685A613B68002B14D1FB681B69002B24
:1031C80009D17B6818687B6803F29C431A46012181
:1031D80002F012FA06E0FB68DA68FB685B691A44D9
:1031E800FB68DA603B68DBB21946786804F09EFC3D
:1031F80046E07B69264A934224D13B6903F40043A5
:10320800002B0AD03B685A01BB69134403F53063AD
:103218001A464FF40043936032E03B6903F0200301
:10322800002B08D03B685A01BB69134403F530638F
:103238001A46202393603B68DBB21946786804F08D
:1032480075FC1DE03B68002B14D179683A68134679
:10325800DB0013449B000B4403F519731B68002B18
:1032680008D17B6818687B6803F29C431A460021E2
:1032780002F0C2F93B68DBB21946786804F056FCE4
:10328800002318462037BD4680BD00BF0A30544F82
:103298000A31544F80B586B000AF786039607B68DA
:1032A8001B687B617B693B617B693C3304331B682A
:1032B800FB603B685A013B69134403F530639B6824
:1032C800BB60FB68154A93420ED9BB6803F4004300
:1032D800002B09D03B685A013B69134403F530635E
:1032E8001A464FF400439360786804F00DFCFB68BD
:1032F8000A4A93420CD97B689B79012B08D17B68D9
:1033080018687B6803F29C431A46012102F074F99D
:10331800002318461837BD4680BD00BF0A30544FF9
:1033280080B485B000AF78600B46FB7013463B80D5
:103338007B681B685B6ABB60FB78002B07D13B8806
:1033480019047B681B68BA680A439A6228E07B689C
:103358001B689B6A1B0CBA681344BB600023FB7391
:103368000DE07B681A68FB7B40339B0013445B6865
:103378001B0CBA681344BB60FB7B0133FB73FA7BFD
:10338800FB78013B9A42ECD33B8818047B681968A8
:10339800FB78013BBA68024340339B000B445A60F8
:1033A800002318461437BD465DF8047B704780B487
:1033B80083B000AF78600B467B807B681B687A8897
:1033C8005A62002318460C37BD465DF8047B7047E7
:1033D80080B483B000AF78600B46FB7000BF0C3739
:1033E800BD465DF8047B704780B586B000AF786055
:1033F8007B68002B01D1012367E27B681B6803F01F
:103408000103002B75D0884B9B6803F00C03042B39
:103418000CD0854B9B6803F00C03082B12D1824B10
:103428005B6803F48003B3F5800F0BD17E4B1B68F8
:1034380003F40033002B5BD07B685B68002B57D10B
:10344800012342E27B685B68B3F5803F06D1764B87
:103458001B68754A43F4803313601DE07B685B6822
:10346800B3F5A02F0CD1704B1B686F4A43F480232F
:1034780013606D4B1B686C4A43F4803313600BE098
:10348800694B1B68684A23F480331360664B1B68DA
:10349800654A23F4802313607B685B68002B13D094
:1034A800FDF75AFC386108E0FDF756FC02463B6917
:1034B800D31A642B01D9032307E25B4B1B6803F47F
:1034C8000033002BF0D014E0FDF746FC386108E02B
:1034D800FDF742FC02463B69D31A642B01D903234A
:1034E800F3E1514B1B6803F40033002BF0D100E0EB
:1034F80000BF7B681B6803F00203002B63D04A4BB4
:103508009B6803F00C03002B0BD0474B9B6803F020
:103518000C03082B1CD1444B5B6803F48003002B7D
:1035280016D1414B1B6803F00203002B05D07B68C2
:10353800DB68012B01D00123C7E13B4B1B6823F05B
:10354800F8027B681B69DB00374913430B603AE0DC
:103558007B68DB68002B20D0344B01221A60FDF712
:10356800FBFB386108E0FDF7F7FB02463B69D31A1D
:10357800022B01D90323A8E12B4B1B6803F002039C
:10358800002BF0D0284B1B6823F0F8027B681B69DE
:10359800DB00254913430B6015E0244B00221A6019
:1035A800FDF7DAFB386108E0FDF7D6FB02463B6918
:1035B800D31A022B01D9032387E11B4B1B6803F0A5
:1035C8000203002BF0D17B681B6803F00803002B73
:1035D80036D07B685B69002B16D0154B01221A6028
:1035E800FDF7BAFB386108E0FDF7B6FB02463B6918
:1035F800D31A022B01D9032367E10B4B5B6F03F04E
:103608000203002BF0D01BE0094B00221A60FDF7E3
:10361800A3FB38610EE0FDF79FFB02463B69D31A16
:10362800022B07D9032350E100380240000047422B
:10363800800E4742884B5B6F03F00203002BEAD1F0
:103648007B681B6803F00403002B00F097800023BD
:10365800FB75814B1B6C03F08053002B0FD10023AB
:10366800BB607D4B1B6C7C4A43F0805313647A4BE0
:103678001B6C03F08053BB60BB680123FB75774B61
:103688001B6803F48073002B18D1744B1B68734AB2
:1036980043F480731360FDF75FFB386108E0FDF7C2
:1036A8005BFB02463B69D31A022B01D903230CE1C9
:1036B8006A4B1B6803F48073002BF0D07B689B680F
:1036C800012B06D1644B1B6F634A43F00103136758
:1036D8001CE07B689B68052B0CD15F4B1B6F5E4A17
:1036E80043F0040313675C4B1B6F5B4A43F0010311
:1036F80013670BE0584B1B6F574A23F001031367FE
:10370800554B1B6F544A23F0040313677B689B686F
:10371800002B15D0FDF720FB38610AE0FDF71CFBF4
:1037280002463B69D31A41F28832934201D90323F6
:10373800CBE0494B1B6F03F00203002BEED014E0E3
:10374800FDF70AFB38610AE0FDF706FB02463B6914
:10375800D31A41F28832934201D90323B5E03E4B94
:103768001B6F03F00203002BEED1FB7D012B05D16B
:10377800394B1B6C384A23F0805313647B689B6970
:10378800002B00F0A180344B9B6803F00C03082B3E
:103798005CD07B689B69022B41D1314B00221A60B7
:1037A800FDF7DAFA386108E0FDF7D6FA02463B6918
:1037B800D31A022B01D9032387E0274B1B6803F098
:1037C8000073002BF0D17B68DA697B681B6A1A43A7
:1037D8007B685B6A9B011A437B689B6A5B08013BB9
:1037E8001B041A437B68DB6A1B061B4913434B60A7
:1037F8001B4B01221A60FDF7AFFA386108E0FDF7AC
:10380800ABFA02463B69D31A022B01D903235CE0C9
:10381800114B1B6803F00073002BF0D054E0104BE1
:1038280000221A60FDF798FA386108E0FDF794FA6B
:1038380002463B69D31A022B01D9032345E0064B04
:103848001B6803F00073002BF0D13DE07B689B6997
:10385800012B07D1012338E00038024000700040F6
:10386800600047421B4B5B68FB607B689B69012BD0
:1038780028D0FB6803F480027B68DB699A4221D177
:10388800FB6803F03F027B681B6A9A421AD1FA6808
:1038980047F6C07313407A68526A9201934211D175
:1038A800FB6803F440327B689B6A5B08013B1B049E
:1038B8009A4207D1FB6803F070627B68DB6A1B06DB
:1038C8009A4201D0012300E0002318461837BD466C
:1038D80080BD00BF0038024080B584B000AF78607A
:1038E80039607B68002B01D10123CCE0684B1B6851
:1038F80003F007033A689A420CD9654B3A68D2B28A
:103908001A70634B1B6803F007033A689A4201D0A8
:103918000123B8E07B681B6803F00203002B20D06A
:103928007B681B6803F00403002B05D0594B9B6888
:10393800584A43F4E05393607B681B6803F008031C
:10394800002B05D0534B9B68524A43F46043936065
:10395800504B9B6823F0F0027B689B684D491343EA
:103968008B607B681B6803F00103002B44D07B68E5
:103978005B68012B07D1474B1B6803F40033002B0E
:1039880019D101237FE07B685B68022B03D07B6839
:103998005B68032B07D13F4B1B6803F00073002BB8
:1039A80009D101236FE03B4B1B6803F00203002B96
:1039B80001D1012367E0374B9B6823F003027B6842
:1039C8005B68344913438B60FDF7C6F9F8600AE079
:1039D800FDF7C2F90246FB68D31A41F288329342D6
:1039E80001D903234FE02B4B9B6803F00C027B6843
:1039F8005B689B009A42EBD1254B1B6803F00703D9
:103A08003A689A420CD2224B3A68D2B21A70204BCA
:103A18001B6803F007033A689A4201D0012332E099
:103A28007B681B6803F00403002B08D0194B9B68C4
:103A380023F4E0527B68DB68164913438B607B688C
:103A48001B6803F00803002B09D0124B9B6823F472
:103A580060427B681B69DB000E4913438B6000F0F2
:103A680021F802460B4B9B681B0903F00F030A4918
:103A7800CB5C22FA03F3094A1360094B1B6818460A
:103A8800FDF726F9002318461037BD4680BD00BF54
:103A9800003C024000380240488101080000002034
:103AA800040000202DE9B04F94B000AF00237B64E0
:103AB8000023FB6400233B640023BB64794B9B68B1
:103AC80003F00C03082B0DD0082B00F2E180002B2B
:103AD80002D0042B03D0DBE0734BBB64DBE0734BF9
:103AE800BB64D8E06F4B5B6803F03F037B646D4BAE
:103AF8005B6803F48003002B63D06A4B5B689B0907
:103B08000022BB63FA63BB6BC3F308033B63002368
:103B18007B63D7E90C4522462B464FF000004FF057
:103B28000001590141EAD261500102460B46214683
:103B3800511A3961294663EB01037B614FF000029A
:103B48004FF00003D7E904AB59468B01514643EACD
:103B5800916351468A015146B2EB0108594663EB1D
:103B680001094FF000024FF000034FEAC90343EA8E
:103B780058734FEAC80290469946234618EB030348
:103B8800BB602B4649EB0303FB604FF000024FF08C
:103B98000003D7E9024529464B02214643EAD1539F
:103BA80021464A02104619467B6C0022BB62FA6223
:103BB800D7E90A23FCF704FB02460B461346FB64CD
:103BC80058E0384B5B689B09002218461146C0F341
:103BD80008033B6200237B62D7E9088942464B46CB
:103BE8004FF000004FF00001590141EAD261500145
:103BF80002460B464146B2EB010A494663EB010B0C
:103C08004FF000024FF000034FEA8B1343EA9A6328
:103C18004FEA8A12B2EB0A0463EB0B054FF000027D
:103C28004FF00003EB0043EA5473E20014461D46CC
:103C38004346E3183B604B4645EB03037B604FF07C
:103C480000024FF00003D7E9004529468B022146C0
:103C580043EA915321468A02104619467B6C00229A
:103C6800BB61FA61D7E90623FCF7AAFA02460B46BC
:103C78001346FB640B4B5B681B0C03F00303013317
:103C88005B003B64FA6C3B6CB2FBF3F3BB6402E091
:103C9800054BBB6400BFBB6C18465037BD46BDE83A
:103CA800B08F00BF003802400024F40000127A00F0
:103CB80080B400AF034B1B681846BD465DF8047B13
:103CC800704700BF0000002080B500AFFFF7F0FF8D
:103CD8000246054B9B689B0A03F007030349CB5C2C
:103CE80022FA03F3184680BD0038024058810108C3
:103CF80080B586B000AF786000237B6100233B610C
:103D08007B681B6803F00103002B05D17B681B68E7
:103D180003F00403002B35D0624B00221A60FDF734
:103D28001BF8786108E0FDF717F802467B69D31A9B
:103D3800022B01D90323B0E05B4B1B6803F000633F
:103D4800002BF0D17B685B689A017B689B681B0736
:103D580055491343C1F88430524B01221A60FCF7CD
:103D6800FBFF786108E0FCF7F7FF02467B69D31A8E
:103D7800022B01D9032390E04B4B1B6803F000632F
:103D8800002BF0D07B681B6803F00203002B00F0C7
:103D980083800023FB60444B1B6C434A43F08053F1
:103DA8001364414B1B6C03F08053FB60FB683F4B73
:103DB8001B683E4A43F480731360FCF7CDFF7861BB
:103DC80008E0FCF7C9FF02467B69D31A022B01D928
:103DD800032362E0354B1B6803F48073002BF0D09B
:103DE800314B1B6F03F440733B613B69002B2FD0B1
:103DF8007B68DB6803F440733A699A4228D02A4BFF
:103E08001B6F23F440733B61294B01221A60284B36
:103E180000221A60244A3B691367234B1B6F03F087
:103E28000103012B14D1FCF797FF78610AE0FCF736
:103E380093FF02467B69D31A41F28832934201D933
:103E480003232AE0184B1B6F03F00203002BEED06C
:103E58007B68DB6803F44073B3F5407F0DD1124BE8
:103E68009B6823F4F8127B68DB6823F0704323F423
:103E780040730D4913438B6005E00B4B9B680A4A5E
:103E880023F4F8139360084B1A6F7B68DB68C3F35D
:103E98000B03054913430B67002318461837BD4623
:103EA80080BD00BF680047420038024000700040F3
:103EB800400E474280B487B000AF786000237B6132
:103EC80000233B610023FB600023BB607B68012B60
:103ED8003FD1244B9B6803F40003FB60FB68002B75
:103EE80006D0FB68B3F5000F2FD11F4B7B612FE085
:103EF8001C4B5B6803F48003B3F5800F08D1194BA2
:103F08005B6803F03F03194AB2FBF3F33B6107E038
:103F1800144B5B6803F03F03154AB2FBF3F33B61B4
:103F2800104BD3F884309B09C3F308023B6902FBAA
:103F380003F3BB600B4BD3F884301B0F03F007036C
:103F4800BA68B2FBF3F37B6102E000237B6100BF38
:103F580000E000BF7B6918461C37BD465DF8047B4E
:103F6800704700BF003802400080BB0000127A0092
:103F78000024F40080B582B000AF78607B68002B25
:103F880001D101237BE07B685B6A002B08D17B6849
:103F98005B68B3F5827F09D07B680022DA6105E0AF
:103FA8007B6800221A617B6800225A617B680022C4
:103FB8009A627B6893F85130DBB2002B06D17B689C
:103FC800002283F850207868FCF79EFD7B68022267
:103FD80083F851207B681B681A687B681B6822F08D
:103FE80040021A607B685B6803F482727B689B6896
:103FF80003F404431A437B68DB6803F400631A4341
:104008007B681B6903F002031A437B685B6903F052
:1040180001031A437B689B6903F400731A437B68A6
:10402800DB6903F038031A437B681B6A03F08003DB
:1040380042EA03017B689B6A03F400527B681B68B1
:104048000A431A607B689B691B0C03F004017B68B8
:104058005B6A03F010027B681B680A435A607B683E
:104068001B68DA697B681B6822F40062DA617B6886
:1040780000225A657B68012283F8512000231846E4
:104088000837BD4680BD84B080B584B000AF786085
:1040980007F11C0080E80E0097F82130012B23D18E
:1040A8007B689B6B23F480327B689A637B68DB6850
:1040B80023F4840323F040037A68D3607B68DB68C9
:1040C80023F440127B68DA6097F82830012B05D179
:1040D8007B68DB6843F480127B68DA60786801F0FB
:1040E800E9FA0346FB731BE07B68DB6843F0400298
:1040F8007B68DA60786801F0DDFA0346FB7397F8AD
:104108002530002B06D17B689B6B43F480327B689B
:104118009A6305E07B689B6B23F480327B689A6323
:10412800BB7F012B0BD17B689B6843F006027B6841
:104138009A607B689B6843F020027B689A60FB7BEF
:1041480018461037BD46BDE8804004B070470000EF
:1041580080B487B000AFF860B9601346FB71FB7993
:10416800022B65D1BB68414A934206D9BB68404AD5
:10417800934202D20F237B6162E0BB683C4A9342C0
:1041880006D3BB683B4A934202D20E237B6157E0B9
:10419800BB68384A934206D3BB68374A934202D277
:1041A8000D237B614CE0BB68334A934206D3BB685E
:1041B800324A934202D80C237B6141E0BB682F4A04
:1041C800934206D9BB682E4A934202D80B237B61DF
:1041D80036E0BB682A4A934206D9BB68294A93420B
:1041E80002D80A237B612BE0BB68264A934206D992
:1041F800BB68254A934202D209237B6120E0BB6851
:10420800214A934206D3BB68204A934202D8082326
:104218007B6115E0BB681D4A934206D9BB681C4AFE
:10422800934202D207237B610AE006237B6107E001
:10423800FB79002B02D109237B6101E009237B6113
:10424800FB68DB6823F47052FB68DA60FB68DA68A5
:104258007B699B0203F470531A43FB68DA600023FE
:1042680018461C37BD465DF8047B7047BFACD800C4
:10427800C0E1E4000024F400807306019F491A019C
:10428800FF2C31013FA44C0100366E011FABA60183
:104298000048E80180B483B000AF78607B689B6811
:1042A80043F001027B689A60002318460C37BD462C
:1042B8005DF8047B704780B483B000AF78607B689A
:1042C8009B6823F001027B689A60002318460C372C
:1042D800BD465DF8047B704780B584B000AF786058
:1042E8000B46FB700023FB607B68DB6823F0C04251
:1042F8007B68DA60FB78012B15D17B68DB6843F0BB
:1043080000527B68DA600A20FCF732FDFB680A334A
:10431800FB60786801F03FF90346012B1ED0FB686B
:10432800C72BF0D91AE0FB78002B15D17B68DB6826
:1043380043F080427B68DA600A20FCF719FDFB68CD
:104348000A33FB60786801F026F90346002B05D094
:10435800FB68C72BF0D901E0012305E0FB68C82BF7
:1043680001D1012300E0002318461037BD4680BD67
:1043780084B080B586B000AF786007F1240080E88B
:104388000E000023FB757B68FB6000233B6109E09E
:104398007A683B6940339B00134400225A603B69AA
:1043A80001333B613B690E2BF2D997F82E30002B75
:1043B8001CD1FB6803F500635B68FA6802F50062CC
:1043C80043F0020353607B689B6B43F400127B68E5
:1043D8009A637B689B6B23F400227B689A637B68F3
:1043E8009B6B23F480227B689A630BE07B689B6B52
:1043F80023F400127B689A637B689B6B43F400226A
:104408007B689A63FB6803F560631A4600231360B0
:1044180097F82930012B0DD197F82730002B04D1BC
:104428000021786800F068F908E00121786800F058
:1044380063F903E00321786800F05EF910217868D9
:1044480000F0FAF80346002B01D00123FB757868C9
:1044580000F024F90346002B01D00123FB75FB680B
:1044680003F500631A4600231361FB6803F5006334
:104478001A4600235361FB6803F500631A460023BC
:10448800D36100233B6143E03B695A01FB68134455
:1044980003F510631B6803F00043B3F1004F18D114
:1044A8003B69002B0AD13B695A01FB68134403F5A9
:1044B80010631A464FF00063136013E03B695A011A
:1044C800FB68134403F510631A464FF090431360DA
:1044D80008E03B695A01FB68134403F510631A4668
:1044E800002313603B695A01FB68134403F510630A
:1044F8001A46002313613B695A01FB68134403F50C
:1045080010631A464FF67F3393603B6901333B6172
:1045180097F824301A463B699342B5D300233B6190
:1045280043E03B695A01FB68134403F530631B6899
:1045380003F00043B3F1004F18D13B69002B0AD1B7
:104548003B695A01FB68134403F530631A464FF080
:104558000063136013E03B695A01FB68134403F5D9
:1045680030631A464FF09043136008E03B695A01E4
:10457800FB68134403F530631A46002313603B6954
:104588005A01FB68134403F530631A46002313618C
:104598003B695A01FB68134403F530631A464FF62A
:1045A8007F3393603B6901333B6197F824301A46A7
:1045B8003B699342B5D3FB6803F500631B69FA684E
:1045C80002F5006223F4807313617B6800229A610C
:1045D8007B686FF080425A6197F82630002B05D12E
:1045E8007B689B6943F010027B689A617B689A69D3
:1045F800104B13437A68936197F82A30002B05D043
:104608007B689B6943F008027B689A6197F82E30B3
:10461800012B07D17B689B6943F0804343F0040377
:104628007A689361FB7D18461837BD46BDE880401F
:1046380004B0704700383C8080B485B000AF786023
:1046480039600023FB60FB680133FB60FB68B3F152
:10465800706F01D903231BE07B681B69002BF2DA1A
:104668000023FB603B689B0143F020027B681A61D2
:10467800FB680133FB60FB68B3F1706F01D903235A
:1046880006E07B681B6903F02003202BF0D0002391
:1046980018461437BD465DF8047B704780B485B072
:1046A80000AF78600023FB60FB680133FB60FB68A8
:1046B800B3F1706F01D9032318E07B681B69002BE5
:1046C800F2DA0023FB607B6810221A61FB68013371
:1046D800FB60FB68B3F1706F01D9032306E07B68C8
:1046E8001B6903F01003102BF0D000231846143771
:1046F800BD465DF8047B704780B485B000AF786034
:104708000B46FB707B68FB60FB6803F500631A6867
:10471800FB78F96801F5006113430B600023184624
:104728001437BD465DF8047B704780B487B000AF8E
:1047380078607B683B613B6903F500639B6803F025
:104748000603FB60FB68002B02D10023FB750AE01F
:10475800FB68022B02D0FB68062B02D10223FB75F3
:1047680001E00F23FB75FB7D18461C37BD465DF83D
:10477800047B704780B485B000AF786039607B688F
:10478800FB603B681B78BB603B685B78012B3AD1C8
:10479800FB6803F50063DA693B681B7803F00F03D5
:1047A800012101FA03F39BB2F96801F50061134393
:1047B800CB61BB685A01FB68134403F510631B689F
:1047C80003F40043002B55D1BB685A01FB6813441E
:1047D80003F510631A683B689B68C3F30A013B68DA
:1047E8001B799B041943BB689B050B431343BA68A9
:1047F8005101FA680A4402F5106243F0805343F409
:104808000043136036E0FB6803F50063DA693B6830
:104818001B7803F00F03012101FA03F31B04F96865
:1048280001F500611343CB61BB685A01FB6813446F
:1048380003F530631B6803F40043002B1AD1BB68EF
:104848005A01FB68134403F530631A683B689B6898
:10485800C3F30A013B681B799B040B431343BA68F3
:104868005101FA680A4402F5306243F0805343F478
:1048780000431360002318461437BD465DF8047BD7
:104888007047000080B485B000AF786039607B68FD
:10489800FB603B681B78BB603B685B78012B61D190
:1048A800BB685A01FB68134403F510631B6803F0E7
:1048B8000043B3F1004F1FD1BB685A01FB68134492
:1048C80003F510631B68BA685101FA680A4402F5D7
:1048D800106243F000631360BB685A01FB6813441D
:1048E80003F510631B68BA685101FA680A4402F5B7
:1048F800106243F080431360FB6803F50063DA6BD2
:104908003B681B7803F00F03012101FA03F39BB204
:10491800DB43F96801F500611340CB63FB6803F5DD
:104928000063DA693B681B7803F00F03012101FA81
:1049380003F39BB2DB43F96801F500611340CB61D7
:10494800BB685A01FB68134403F510631A68BB6817
:104958005901FB680B4403F510631946354B1340A6
:104968000B6060E0BB685A01FB68134403F53063D1
:104978001B6803F00043B3F1004F1FD1BB685A0115
:10498800FB68134403F530631B68BA685101FA6881
:104998000A4402F5306243F000631360BB685A01B1
:1049A800FB68134403F530631B68BA685101FA6861
:1049B8000A4402F5306243F080431360FB6803F554
:1049C8000063DA6B3B681B7803F00F03012101FADF
:1049D80003F31B04DB43F96801F500611340CB6363
:1049E800FB6803F50063DA693B681B7803F00F0383
:1049F800012101FA03F31B04DB43F96801F50061A7
:104A08001340CB61BB685A01FB68134403F530635C
:104A18001A68BB685901FB680B4403F530631946F3
:104A2800054B13400B60002318461437BD465DF84C
:104A3800047B7047007833EC0078F3EF80B58AB0D8
:104A480002AFF860B9601346FB71FB68FB61BB6895
:104A58001B78BB61BB685B78012B40F07F81BB682A
:104A68001B69002B32D1BB695A01FB69134403F55A
:104A780010631B69BA695101FA690A4402F51062A8
:104A880023F0FF5323F4C0131361BB695A01FB6978
:104A9800134403F510631B69BA695101FA690A44A2
:104AA80002F5106243F400231361BB695A01FB69E4
:104AB800134403F510631B69BA695101FA690A4482
:104AC80002F51062DB0CDB04136197E0BB695A0145
:104AD800FB69134403F510631B69BA695101FA694C
:104AE8000A4402F51062DB0CDB041361BB695A014E
:104AF800FB69134403F510631B69BA695101FA692C
:104B08000A4402F5106223F0FF5323F4C013136123
:104B1800BB69002B1AD1BB681A69BB689B689A42AB
:104B280003D9BB689A68BB681A61BB695A01FB69FB
:104B3800134403F510631B69BA695101FA690A4401
:104B480002F5106243F40023136144E0BB681A695C
:104B5800BB689B6813445A1EBB689B68B2FBF3F39F
:104B6800FB82BB695A01FB69134403F510631A6998
:104B7800FB8AD904A44B0B40B9694801F96901447F
:104B880001F5106113430B61BB681B79012B22D11E
:104B9800BB695A01FB69134403F510631B69BA69C1
:104BA8005101FA690A4402F5106223F0C043136107
:104BB800BB695A01FB69134403F510631A69FB8A40
:104BC8005B0703F0C043B9694801F969014401F57D
:104BD800106113430B61BB695A01FB69134403F568
:104BE80010631A69BB681B69C3F31203B9694801EA
:104BF800F969014401F5106113430B61FB79012B3D
:104C08004BD1BB68DB69002B09D0BB695A01FB6932
:104C1800134403F510631A46BB68DB695361BB682C
:104C28001B79012B28D1FB6903F500639B6803F40A
:104C38008073002B10D1BB695A01FB69134403F53B
:104C480010631B68BA695101FA690A4402F51062D7
:104C580043F0005313600FE0BB695A01FB6913442A
:104C680003F510631B68BA695101FA690A4402F531
:104C7800106243F080531360BB695A01FB69134407
:104C880003F510631B68BA695101FA690A4402F511
:104C9800106243F00443136066E1BB695A01FB6983
:104CA800134403F510631B68BA695101FA690A4491
:104CB80002F5106243F004431360BB681B79012BB3
:104CC80015D0BB681B69002B00F04E81FB6903F50A
:104CD80000635A6BBB681B7803F00F03012101FACC
:104CE80003F3F96901F5006113434B633CE1FB6988
:104CF80003F500639B6803F48073002B10D1BB6934
:104D08005A01FB69134403F510631B68BA69510122
:104D1800FA690A4402F5106243F0005313600FE089
:104D2800BB695A01FB69134403F510631B68BA6930
:104D38005101FA690A4402F5106243F08053136086
:104D4800BB68D968BB681A78BB681B6998B2FB79DD
:104D580000930346F86800F0B9F905E1BB695A0108
:104D6800FB69134403F530631B69BA695101FA6999
:104D78000A4402F53062DB0CDB041361BB695A019B
:104D8800FB69134403F530631B69BA695101FA6979
:104D98000A4402F5306223F0FF5323F4C013136171
:104DA800BB69002B32D1BB681B69002B03D0BB68E1
:104DB8009A68BB681A61BB689A68BB681A62BB6963
:104DC8005A01FB69134403F530631A69BB681B6A0F
:104DD800C3F31203B9694801F969014401F5306167
:104DE80013430B61BB695A01FB69134403F5306334
:104DF8001B69BA695101FA690A4402F5306243F441
:104E08000023136162E000BF0000F81FBB681B6944
:104E1800002B23D1BB695A01FB69134403F53063A6
:104E28001A69BB689B68C3F31203B9694801F96939
:104E3800014401F5306113430B61BB695A01FB69F9
:104E4800134403F530631B69BA695101FA690A44CE
:104E580002F5306243F40023136137E0BB681A6936
:104E6800BB689B6813445A1EBB689B68B2FBF3F38C
:104E7800FB82BB689B68FA8A03FB02F2BB681A6272
:104E8800BB695A01FB69134403F530631A69FB8A4D
:104E9800D904384B0B40B9694801F969014401F557
:104EA800306113430B61BB695A01FB69134403F575
:104EB80030631A69BB681B6AC3F31203B9694801F6
:104EC800F969014401F5306113430B61FB79012B4A
:104ED8000DD1BB68DB68002B09D0BB68D968BB69FA
:104EE8005A01FB69134403F530630A465A61BB68EB
:104EF8001B79012B28D1FB6903F500639B6803F438
:104F08008073002B10D1BB695A01FB69134403F568
:104F180030631B68BA695101FA690A4402F53062C4
:104F280043F0005313600FE0BB695A01FB69134457
:104F380003F530631B68BA695101FA690A4402F53E
:104F4800306243F080531360BB695A01FB69134414
:104F580003F530631B68BA695101FA690A4402F51E
:104F6800306243F004431360002318462037BD46DF
:104F780080BD00BF0000F81F80B487B000AF786024
:104F880039600023FB600023FB757B683B613B684D
:104F98005B78012B4AD13B681B785A013B69134463
:104FA80003F510631B6803F00043B3F1004F40F0B2
:104FB80086803B681B785A013B69134403F51063EC
:104FC8001B683A68127851013A690A4402F510627E
:104FD80043F0006313603B681B785A013B69134434
:104FE80003F510631B683A68127851013A690A445C
:104FF80002F5106243F080431360FB680133FB60E5
:10500800FB6842F21072934202D90123FB7556E005
:105018003B681B785A013B69134403F510631B680E
:1050280003F00043B3F1004FE7D048E03B681B783A
:105038005A013B69134403F530631B6803F00043CE
:10504800B3F1004F3BD13B681B785A013B691344CD
:1050580003F530631B683A68127851013A690A44CB
:1050680002F5306243F0006313603B681B785A0115
:105078003B69134403F530631B683A6812785101A1
:105088003A690A4402F5306243F080431360FB68D2
:105098000133FB60FB6842F21072934202D901238C
:1050A800FB750CE03B681B785A013B69134403F518
:1050B80030631B6803F00043B3F1004FE7D0FB7D7A
:1050C80018461C37BD465DF8047B704780B489B02C
:1050D80000AFF860B96011461A460B46FB711346DB
:1050E800BB80FB687B61BB68FB6197F82830002BAD
:1050F80023D1BB8803339B083B610023BB6118E0C5
:10510800FB791A037B69134403F580531A46FB693C
:105118001B681360FB690133FB61FB690133FB61A9
:10512800FB690133FB61FB690133FB61BB69013337
:10513800BB61BA693B699A42E2D300231846243717
:10514800BD465DF8047B704780B48BB000AFF86053
:10515800B9601346FB80FB68BB61BB687B62FB8858
:105168009B089BB27B61FB8803F00303FB8300234E
:105178003B6214E0BB6903F580531A687B6A1A60C6
:105188007B6A01337B627B6A01337B627B6A013312
:105198007B627B6A01337B623B6A01333B623A6A1A
:1051A8007B699A42E6D3FB8B002B1ED000233B621F
:1051B800BB6903F580531A4607F1100312681A6099
:1051C8003A693B6ADBB2DB0022FA03F3DAB27B6AA4
:1051D8001A703B6A01333B627B6A01337B62FB8B4B
:1051E800013BFB83FB8B002BEAD17B6A18462C37EB
:1051F800BD465DF8047B704780B485B000AF786029
:1052080039607B68FB603B681B78BB603B685B78F8
:10521800012B2CD1BB685A01FB68134403F51063BA
:105228001B68002B12DBBB68002B0FD0BB685A0130
:10523800FB68134403F510631B68BA685101FA68E8
:105248000A4402F5106223F080431360BB685A01D8
:10525800FB68134403F510631B68BA685101FA68C8
:105268000A4402F5106243F4001313602BE0BB6894
:105278005A01FB68134403F530631B68002B12DBEB
:10528800BB68002B0FD0BB685A01FB68134403F5B9
:1052980030631B68BA685101FA680A4402F5306243
:1052A80023F080431360BB685A01FB68134403F57D
:1052B80030631B68BA685101FA680A4402F5306223
:1052C80043F400131360002318461437BD465DF8F5
:1052D800047B704780B485B000AF786039607B6824
:1052E800FB603B681B78BB603B685B78012B28D16F
:1052F800BB685A01FB68134403F510631B68BA685E
:105308005101FA680A4402F5106223F4001313608D
:105318003B681B79032B03D03B681B79022B38D1E0
:10532800BB685A01FB68134403F510631B68BA682D
:105338005101FA680A4402F5106243F08053136081
:1053480027E0BB685A01FB68134403F530631B6808
:10535800BA685101FA680A4402F5306223F400136E
:1053680013603B681B79032B03D03B681B79022B26
:105378000FD1BB685A01FB68134403F530631B68FF
:10538800BA685101FA680A4402F5306243F0805362
:105398001360002318461437BD465DF8047B704738
:1053A80080B485B000AF78600B46FB707B68FB600B
:1053B800FB6803F500631B68FA6802F5006223F4D2
:1053C800FE631360FB6803F500631A68FB781B0132
:1053D80003F4FE63F96801F5006113430B600023D1
:1053E80018461437BD465DF8047B704780B485B015
:1053F80000AF78607B68FB60FB6803F560631B683F
:10540800FA6802F5606223F003031360FB6803F592
:1054180000635B68FA6802F5006223F002035360D8
:10542800002318461437BD465DF8047B704780B4E6
:1054380085B000AF78607B68FB60FB6803F560634C
:105448001B68FA6802F5606223F003031360FB68C7
:1054580003F500635B68FA6802F5006243F0020333
:105468005360002318461437BD465DF8047B704727
:1054780080B485B000AF78607B685B69FB607B684F
:105488009B69FA681340FB60FB6818461437BD46F1
:105498005DF8047B704780B485B000AF78607B68A6
:1054A800FB60FB6803F500639B69BB60FB6803F561
:1054B8000063DB69BA681340BB60BB681B0C184605
:1054C8001437BD465DF8047B704780B485B000AFE3
:1054D80078607B68FB60FB6803F500639B69BB60D1
:1054E800FB6803F50063DB69BA681340BB60BB68FF
:1054F8009BB218461437BD465DF8047B704780B4EC
:1055080085B000AF78600B46FB707B68FB60FB786A
:105518005A01FB68134403F530639B68BB60FB6862
:1055280003F500635B69BA681340BB60BB68184643
:105538001437BD465DF8047B704780B487B000AF70
:1055480078600B46FB707B687B617B6903F50063C1
:105558001B693B617B6903F500635B6BFB60FB7850
:1055680003F00F03FA6822FA03F3DB01DBB23A69AE
:1055780013433B61FB785A017B69134403F51063BD
:105588009B683A691340BB60BB6818461C37BD4628
:105598005DF8047B704780B483B000AF78607B68A7
:1055A8005B6903F0010318460C37BD465DF8047BC0
:1055B800704780B485B000AF78607B68FB60FB689B
:1055C80003F510631B68FA6802F5106223F4FF63A1
:1055D80023F007031360FB6803F500635B68FA6850
:1055E80002F5006243F480735360002318461437B1
:1055F800BD465DF8047B704780B487B000AFF860A3
:105608000B467A60FB72FB687B61FB683C330433B2
:105618001B683B613B69264A93420AD97B6903F5BB
:1056280030631B6803F00043B3F1004F01D100233E
:1056380037E07B6903F530631A46002313617B6901
:1056480003F530631B697A6902F5306243F400237D
:1056580013617B6903F530631B697A6902F530626F
:1056680043F0180313617B6903F530631B697A699A
:1056780002F5306243F0C0431361FB7A012B0FD16E
:105688007B6903F530631A467B6853617B6903F5D0
:1056980030631B687A6902F5306243F08023136037
:1056A800002318461C37BD465DF8047B704700BFD1
:1056B8000A30544F80B485B000AF78600023FB6097
:1056C800FB680133FB60FB68B3F1706F01D90323FA
:1056D80022E07B681B69002BF2DA0A23FB6002E0F8
:1056E800FB68013BFB60FB68002BF9D17B681B69F9
:1056F80043F001027B681A61FB680133FB60FB68B9
:10570800B3F1706F01D9032306E07B681B6903F0CE
:105718000103012BF0D0002318461437BD465DF86D
:10572800047B704780B584B000AF78600B46FB708F
:105738004FF4077002F064FCF860FB68002B09D195
:105748007B68D3F8D4227B68B032002143F822105A
:105758000223D4E04FF407720021F86802F094FCA9
:105768007B68D3F8D4227B68B032F96843F82210FA
:105778007B68D3F8D4227B68B03253F822207B6848
:10578800C3F8BC227B681B7C002B38D15E4B197890
:105798004FF400730222786802F00FFB5A4B1B7813
:1057A80003F00F02796813469B0013449B000B44D7
:1057B800233301221A70554B19784FF400730222D3
:1057C800786802F0FAFA514B1B7803F00F027968F7
:1057D80013469B0013449B000B4403F263130122FE
:1057E8001A704B4B1B7803F00F02796813469B0025
:1057F80013449B000B441C3310221A6035E0424BC3
:10580800197840230222786802F0D7FA3E4B1B78B9
:1058180003F00F02796813469B0013449B000B4466
:10582800233301221A70394B1978402302227868F1
:1058380002F0C3FA354B1B7803F00F027968134660
:105848009B0013449B000B4403F2631301221A705C
:105858002F4B1B7803F00F02796813469B00134403
:105868009B000B441C3310221A60294B197808231B
:105878000322786802F0A1FA254B1B7803F00F0287
:10588800796813469B0013449B000B442333012281
:105898001A70FB680022C3F804227B68D3F8D4325C
:1058A8007A68B0339B0013445B681B689847FB68B1
:1058B8000022C3F81422FB680022C3F81822FB68F0
:1058C800D3F80432002B01D1022318E07B681B7C3B
:1058D800002B0AD10D4B1978FB68D3F804224FF43A
:1058E8000073786802F058FB08E0084B1978FB68E9
:1058F800D3F804224023786802F04EFB00231846B0
:105908001037BD4680BD00BF9300002094000020E2
:105918009500002080B582B000AF78600B46FB7020
:105928003A4B1B781946786802F06DFA374B1B78AA
:1059380003F00F02796813469B0013449B000B4445
:10594800233300221A70324B1B781946786802F00C
:105958005AFA2F4B1B7803F00F02796813469B0005
:1059680013449B000B4403F2631300221A70294B63
:105978001B781946786802F046FA264B1B7803F024
:105988000F02796813469B0013449B000B44233392
:1059980000221A701F4B1B7803F00F027968134618
:1059A8009B0013449B000B441C3300221A607B6845
:1059B800D3F8D4227B68B03253F82230002B1FD0A2
:1059C8007B68D3F8D4327A68B0339B0013445B68A1
:1059D8005B6898477B68D3F8D4227B68B03253F869
:1059E8002230184602F01AFB7B68D3F8D4227B6871
:1059F800B032002143F822107B680022C3F8BC2291
:105A0800002318460837BD4680BD00BF930000201C
:105A1800940000209500002080B586B000AF786023
:105A280039607B68D3F8D4227B68B03253F82230CF
:105A38003B6100237B7300237B810023FB753B695B
:105A4800002B01D10323BFE03B681B7803F0600300
:105A5800002B50D0202B40F0AF803B68DB88002B18
:105A68003AD03B681B785BB2002B1BDA7B68D3F813
:105A7800D4327A68B0339B0013445B689B683A68F9
:105A8800507839693A68D28898473B68DB88072B91
:105A980028BF0723FB813B69FA891946786801F01A
:105AA80069FD90E03B685A783B6983F800223B68BF
:105AB800DB883F2B03D83B68DB88DAB200E0402262
:105AC8003B6983F8012239693B6993F801321A4628
